:100000000C946B000C9493000C9493000C9493004C
:100010000C9493000C9493000C9493000C94930014
:100020000C9493000C9493000C9493000C948D0802
:100030000C9493000C9493000C9493000C949300F4
:100040000C9493000C9493000C9493000C94E7048C
:100050000C9493000000000100000000000000006C
:100060000403000600000000000000000000000083
:100070000000000001020408102040800102040872
:100080001020408001020408102040808040201091
:100090000804020102020202020202020404040431
:1000A0000404040403030303030303030101010124
:1000B000010101010000390036003300300000006A
:1000C0003B0038003500320000003A0037003400B1
:1000D0003100EA010E0411241FBECFE5D8E0DEBFD7
:1000E000CDBF11E0A0E6B0E0E4EBFCE102C005907A
:1000F0000D92AC31B107D9F721E0ACE1B1E001C01C
:100100001D92AF3FB207E1F710E0C6EDD0E004C0AA
:100110002297FE010E947E0BC23DD107C9F70E94C3
:100120004A0A0C94580E0C9400006F927F928F92A2
:10013000AF92CF92EF92FF920F931F93CF93DF93E3
:10014000CDB7DEB765970FB6F894DEBF0FBECDBF53
:100150001DA1FEA01F924F931F926F931F928F932A
:1001600080E690E09F938F93CE0101963C017F92B1
:100170008F932D8B0E94870B40E060E08DE191E032
:100180000E949606B3018DE191E00E94450A1F92FC
:10019000CF921F92EF921F920F931F922D892F9350
:1001A0008EE790E09F938F937F926F920E94870BD0
:1001B00041E060E08DE191E00E949606B3018DE19F
:1001C00091E00E94450A1F928CA18F931F928BA1F0
:1001D0008F931F928F921F92AF928FE990E09F931F
:1001E0008F937F926F920E94870B0FB6F894DEBFB9
:1001F0000FBECDBF42E060E08DE191E00E94960627
:10020000B3018DE191E00E94450AFF921F9380ECBB
:1002100090E09F938F937F926F920E94870B43E0B1
:1002200060E08DE191E00E949606B3018DE191E0DE
:100230000E94450A0F900F900F900F900F900F9013
:1002400065960FB6F894DEBF0FBECDBFDF91CF919C
:100250001F910F91FF90EF90CF90AF908F907F9074
:100260006F9008952F923F924F925F926F927F927C
:100270008F929F92AF92BF92CF92DF92EF92FF92B6
:100280000F931F93CF93DF9300D000D000D0CDB752
:10029000DEB78CE191E00E948C024C0180E00E946C
:1002A000DE091C0181E00E94DE09BC0182E06D8351
:1002B0007E830E94DE093C018FE10E94DE092C0151
:1002C0008EE10E94DE098C018DE10E94DE097C0135
:1002D0008CE10E94DE096C018BE10E94DE095C0169
:1002E0008AE10E94DE099A83898389E10E94DE09FE
:1002F0009C838B8388E10E94DE0951E06D817E81C1
:10030000AB2809F450E0AA24A394CD2809F4A12C29
:10031000CC24C394EF2809F4C12CEE24E394012BE0
:1003200009F4E12C01E0452809F400E021E0672808
:1003300009F420E041E0672B09F440E061E0232864
:1003400009F460E031E0892809F430E071E0892B9C
:1003500009F470E01F927F9381E0EB81FC81EF2B29
:1003600009F480E08F9381E0E981FA81EF2B09F4B1
:1003700080E08F93852E832F0E9495008BE10E9451
:10038000DE0961E0892B09F060E08BE10E94A80999
:100390000F900F900F900F9068EC70E080E090E06D
:1003A00026960FB6F894DEBF0FBECDBFDF91CF917A
:1003B0001F910F91FF90EF90DF90CF90BF90AF9083
:1003C0009F908F907F906F905F904F903F902F9075
:1003D0000C94FB088F92AF92CF92EF920F931F92E3
:1003E0001F9283E08F9387E0882E96E0A92E25E068
:1003F000C22E34E0E32E00E021E042E067E28DE12E
:1004000091E00E94E4070F900F900F908CE191E033
:100410000F91EF90CF90AF908F900C948B02CF9371
:1004200060E18CE191E00E94D00220E044E064E1D0
:100430008DE191E00E9472088DE191E00E947F06BB
:1004400040E060E08DE191E00E9496066BEC70E088
:100450008DE191E00E94450A41E060E08DE191E08C
:100460000E94960660EE70E08DE191E00E94450AE0
:1004700064EF71E080E090E00E94FB08C0E043E0A0
:100480006C2F8DE191E00E9496066AEE70E08DE19E
:1004900091E00E94450A64E170E080E090E00E94F3
:1004A000FB08CF5FC43159F78DE191E00E948F06C0
:1004B00040E060E08DE191E00E94960662E080E01D
:1004C0000E946F0962E081E00E946F0962E082E0B1
:1004D0000E946F0961E08FE10E946F0961E08EE187
:1004E0000E946F0961E08DE10E946F0961E08CE17B
:1004F0000E946F0961E08BE10E946F0961E08AE16F
:100500000E946F0961E089E10E946F0961E088E162
:10051000CF910C946F090895CF93DF9363E270E05D
:1005200086E391E00E94920342E050E063E270E0D3
:1005300086E391E00E94080486E391E00E94EF02C6
:10054000D82F80E0C82F86E391E00E94EF02C82BED
:10055000D92B86E391E00E940B04BE0180E090E07D
:100560000E94EE0A2AE939E949E95FE30E945A0A42
:100570000E94C20ACB01DF91CF910895CF93C62F7D
:1005800063E270E086E391E00E9492036C2F86E3C1
:1005900091E00E943F0386E391E0CF910C940B041D
:1005A000633161F028F420EF260F223078F406C082
:1005B000603260F0623210F0633241F40E94BE0299
:1005C0008FE19EE40197F1F700C00000089580914B
:1005D000660190E020916701821B910908952091A6
:1005E000670180916601281750F4E22FF0E0E85986
:1005F000FE4F808190E02F5F2093670108958FEF79
:100600009FEF0895E091670180916601E81730F44B
:10061000F0E0E859FE4F808190E008958FEF9FEF62
:1006200008950895CF92DF92EF92FF920F931F9358
:10063000CF93DF937C01CB018A01209142012223D9
:1006400089F0EB016B01C40ED51ECC15DD0569F0F8
:100650006991D701ED91FC910190F081E02DC701E6
:100660000995F3CF642F0E94C104C801DF91CF9197
:100670001F910F91FF90EF90DF90CF900895CF934F
:10068000DF931F92CDB7DEB7698320914201222309
:10069000D1F020914301203240F021E030E0FC0114
:1006A0003383228380E090E015C080914401E82FDD
:1006B000F0E0EB5BFE4F998190838F5F8093440164
:1006C0008093430105C061E0CE0101960E94C10400
:1006D00081E090E00F90DF91CF910895FC011382AB
:1006E000128248EE53E060E070E0448355836683F5
:1006F000778380EF90E09183808308951092670163
:100700001092660110924401109243010C9412045D
:1007100081E0809342016093650110924401109240
:10072000430108950C9488030F93062F21E0409114
:10073000430165E471E0809165010E946D041092AF
:10074000440110924301109242010F9108958F923B
:100750009F92AF92BF92CF92DF92EF92FF920F9350
:100760001F93CF93DF93EC01F62ED42E480159014D
:10077000EE2019F10E9488031E2D143008F013E0BA
:100780001150B8F0E881F98128E0129FB0011124DE
:10079000A501940104C056954795379527956A950C
:1007A000D2F7CA01B9010190F081E02DCE0109957F
:1007B000E7CF60E0CE010E9494034D2D413208F056
:1007C00040E22C2D68E671E08F2D0E9428041092E3
:1007D000670180936601DF91CF911F910F91FF9088
:1007E000EF90DF90CF90BF90AF909F908F90089543
:1007F000CF92EF920F931F93C22EE12C00E010E0F6
:1008000098010E94A7031F910F91EF90CF90089538
:1008100021E00C94F80361E00C94940386E391E0EA
:100820000C946E031092F50181E08093F301109215
:10083000F20161E081E10E94A80961E080E10E948B
:10084000A8090898099880E280B985E486BF0895D0
:10085000413208F040C09091F5019111FCCF91E038
:100860009093F5012093F3012FEF209388011092CC
:10087000CD01240F2093CC019093F4019091F401C9
:10088000880F892B8093F4018091F201813051F41B
:100890001092F2018091F40183B906B603FCFACFFD
:1008A00085EC01C085EE86BF8091F5018130E1F3D2
:1008B0008091CD01841710F44091CD012EEC31E0F0
:1008C000FB01D9018A2F821B841718F48D91819323
:1008D000F9CF842F089580E008950F93413208F0F6
:1008E00047C09091F5019111FCCF92E09093F501F2
:1008F0000093F3019FEF909388011092CD014093F4
:10090000CC01FB016EEC71E0DB019A2F961B941772
:1009100018F491919D93F9CF1092F4019091F40104
:10092000880F892B8093F4018091F201813051F47A
:100930001092F2018091F40183B906B603FCFACF5C
:1009400085EC01C085EE86BF222321F08091F50160
:100950008230E1F3809188018F3F61F080918801BE
:10096000803251F080918801803341F483E007C0E8
:1009700081E005C080E003C082E001C084E00F9107
:100980000895613298F42091F501243089F4609340
:10099000AA01FC018CEA91E0DC012A2F281B261712
:1009A00018F421912D93F9CF80E0089581E0089506
:1009B00082E0089585ED86BF06B604FCFDCF109257
:1009C000F501089585EC86BF1092F50108951F92F8
:1009D0000F920FB60F9211242F933F934F935F9373
:1009E0006F937F938F939F93AF93BF93EF93FF93F7
:1009F00081B1887F803609F49BC078F5883209F48C
:100A00005DC090F4803109F456C038F4882309F4AD
:100A1000EEC0883009F44FC0EEC0883109F44EC0F2
:100A2000803209F45EC0E7C0803409F468C058F42D
:100A3000803309F456C0883309F0DDC08093880103
:100A40000E94E204D8C0803509F44EC0883509F40C
:100A50005BC0883409F0CFC0CCC0883909F4BFC06E
:100A6000A8F4883709F464C038F4883609F460C003
:100A7000803709F45DC0BFC0883809F4B0C0803940
:100A800009F45CC0803809F0B6C058C0803B09F456
:100A90007FC038F4803A09F462C0883A09F478C01B
:100AA000AAC0803C09F49EC0883C09F49BC0883BE6
:100AB00009F483C0A0C08091F40110C09091CD01D1
:100AC0008091CC01981758F5E091CD0181E08E0F0F
:100AD0008093CD01F0E0E253FE4F808183B985EC35
:100AE0007FC08093880185C0E091CD0181E08E0FA9
:100AF0008093CD0183B1F0E0E253FE4F808390916B
:100B0000CD018091CC0168C0E091CD0181E08E0FD4
:100B10008093CD0183B1F0E0E253FE4F808380915A
:100B2000F301811166C081E08093F20184EA5BC029
:100B300083E08093F50110928901D1CF80918901E2
:100B4000803208F04CC0E091890181E08E0F8093E3
:100B5000890183B1F0E0E657FE4F8083C0CF0E9449
:100B6000E20480918901803230F4E0918901F0E063
:100B7000E657FE4F10826091890170E0E091EE012E
:100B8000F091EF018AE891E009951092890133C054
:100B900084E08093F5011092AB011092AA01E091DC
:100BA000F001F091F10109958091AA01811105C030
:100BB00081E08093AA011092AC01E091AB0181E049
:100BC0008E0F8093AB01F0E0E455FE4F808183B936
:100BD0009091AB018091AA01981708F480CF85E825
:100BE00086BF09C085EC86BF1092F50104C0109243
:100BF00088010E94DA04FF91EF91BF91AF919F911C
:100C00008F917F916F915F914F913F912F910F90B5
:100C10000FBE0F901F901895FC0112828FEF8183F9
:100C2000108213820895FC018381882331F06111C1
:100C300003C08FEF818308951182089586E391E0C8
:100C40000E94880386E391E00E940B0491E08111E9
:100C500090E0892F0895CF93DF93EC016A8386E3B8
:100C600091E00E947E036A81CE010E941E068B8362
:100C7000882329F086E391E00E94EF0288838B812C
:100C800090E0DF91CF910895CF93DF93EC018B81BA
:100C90008823A9F089818095862388836A8186E3E9
:100CA00091E00E948803688186E391E00E943F03FF
:100CB00086E391E00E940B04282F30E002C020E080
:100CC00030E081E090E0232B11F080E090E0DF91B4
:100CD000CF91089508950895DC01ED91FC9102846F
:100CE000F385E02D41E0099581E090E00895FC0155
:100CF0001382128220E031E0318320830895DC01E9
:100D0000ED91FC910084F185E02D6FEF0994DC01F9
:100D1000ED91FC910284F385E02D40E0099461E0BF
:100D20000E94870680ED97E00C943509CF93DF93FE
:100D3000CDB7DEB728970FB6F894DEBF0FBECDBF94
:100D40001D8220E42E8334E13F8334E53887198205
:100D50002A8320E12B8320E52C83FC012781421785
:100D600010F04FEF420FFC01308550E0FE01E40F20
:100D7000F51F303121F4243011F4218101C0258187
:100D8000260F2068622F28960FB6F894DEBF0FBE9C
:100D9000CDBFDF91CF910C948706FC016581262F92
:100DA000246025836C600C948706CF93DF93EC015D
:100DB000423018F08C8188608C834F8368872223AF
:100DC00029F0413019F48C8184608C8364E670E0F2
:100DD00080E090E00E94FB086C8164FD31C0E881F6
:100DE000F9810284F385E02D42E063E0CE010995AC
:100DF00084E991E10E943509E881F9810284F38553
:100E0000E02D42E063E0CE01099586E990E00E9482
:100E10003509E881F9810284F385E02D42E063E041
:100E2000CE01099586E990E00E943509E881F981B3
:100E30000284F385E02D42E062E0CE01099516C000
:100E40006062CE010E94870684E991E10E94350923
:100E50006C816062CE010E94870686E990E00E9464
:100E600035096C816062CE010E94870686E990E0B8
:100E70000E9435096C816062CE010E9487068CE376
:100E800090E00E94350984E08D83CE010E94CD065A
:100E9000CE010E948F0682E08E8366E0CE010E9422
:100EA0008706CE01DF91CF910C947F0621E001C02F
:100EB000220F6A95EAF7DC011C962C931C971A9670
:100EC0005C934E931997ED91FC910084F185E02D90
:100ED00060E00994FC012485222399F081859285A4
:100EE000009719F4611105C006C0019721F4611142
:100EF00002C0258701C015866585CF010E960C942A
:100F0000440608950F931F93CF93DF93EC018C0158
:100F1000025F1F4F6B85C8010E942B06019761F489
:100F200061E0C8010E9413061C8260E0C8010E94B3
:100F3000440681E090E002C080E090E0DF91CF9134
:100F40001F910F9108958F92AF92CF92EF920F93CE
:100F5000CF93DF93CDB7DEB7FC0163871486158688
:100F60001286118681E0982F01C0990F4A95EAF701
:100F7000928B982F01C0990F2A95EAF7938B982F9F
:100F800001C0990F0A95EAF7948B982F01C0990F29
:100F9000EA94EAF7958B982F01C0990FCA94EAF763
:100FA000968B982F01C0990FAA94EAF7978B01C0EE
:100FB000880F8A94EAF7808FDF91CF910F91EF909D
:100FC000CF90AF908F9008954F925F926F927F92E3
:100FD0008F92AF92CF92EF920F931F93CF93DF93A5
:100FE00000D01F92CDB7DEB73C011A894B885C88D0
:100FF0002B834A8369830E94770680E191E0F301A5
:1010000091838083C3010E960E940C062B814A8136
:101010006981C3010E94A307A201612FC3010F9040
:101020000F900F90DF91CF911F910F91EF90CF9084
:10103000AF908F907F906F905F904F900C94560779
:10104000FF920F931F93CF93DF93EC01F62E8C0149
:10105000025F1F4F6A896F29C8010E9444066A898E
:1010600060956F21C801DF91CF911F910F91FF9083
:101070000C94440620E030E050E060FF05C0FC0125
:10108000E20FF31F7589572B66952F5F3F4F243072
:10109000310599F7413011F4FC014489FC01658563
:1010A000652B642B0C9420080F931F93CF93DF9331
:1010B000EC01142F062F0F70423011F440E00AC0EB
:1010C00070E084E0759567958A95E1F7CE010E94FE
:1010D0003A08412F602FCE01DF91CF911F910F91E0
:1010E0000C943A080F931F93CF93DF9300D01F9275
:1010F000CDB7DEB78C012B834A8369830E948207B8
:101100002B814A816981C8010F900F900F90DF9168
:10111000CF911F910F910C94D5061F920F920FB68D
:101120000F9211242F933F938F939F93AF93BF936D
:101130008091F7019091F801A091F901B091FA0125
:101140003091F60126E0230F2D3720F40296A11DE1
:10115000B11D05C029E8230F0396A11DB11D2093E1
:10116000F6018093F7019093F801A093F901B093F1
:10117000FA018091FB019091FC01A091FD01B091D9
:10118000FE010196A11DB11D8093FB019093FC010E
:10119000A093FD01B093FE01BF91AF919F918F91FC
:1011A0003F912F910F900FBE0F901F9018953FB752
:1011B000F8948091FB019091FC01A091FD01B09108
:1011C000FE0122B708B600FE05C02F3F19F00196B8
:1011D000A11DB11D3FBF6627782F892F9A2F620F5F
:1011E000711D811D911D43E0660F771F881F991F98
:1011F0004A95D1F708958F929F92AF92BF92CF9266
:10120000DF92EF92FF926B017C010E94D7084B01A5
:101210005C01C114D104E104F104F1F00E94590A07
:101220000E94D708681979098A099B09683E7340AA
:101230008105910570F321E0C21AD108E108F10897
:1012400088EE880E83E0981EA11CB11CC114D10445
:10125000E104F10429F7DDCFFF90EF90DF90CF900C
:10126000BF90AF909F908F9008958330910528F0A4
:10127000880F991F04970197F1F70895789483B721
:10128000826083BF83B7816083BF89B7816089BF74
:101290001EBC8EB582608EBD8EB581608EBD8FB551
:1012A00081608FBD85B5846085BD85B5806485BD51
:1012B000329A319A3098379A1AB80895843039F0B2
:1012C000863049F0833051F48FB58F7702C08FB5E7
:1012D0008F7D8FBD089585B58F7D85BD0895CF9392
:1012E000DF9390E0FC01EC58FF4F2491FC01EC5699
:1012F000FF4F8491882349F190E0880F991FFC01EA
:10130000E853FF4FA591B49182549F4FFC01C591C2
:10131000D4919FB7611108C0F8948C9120958223D5
:101320008C93888182230AC0623051F4F8948C91A6
:10133000322F309583238C938881822B888304C03D
:10134000F8948C91822B8C939FBFDF91CF9108955D
:101350000F931F93CF93DF931F92CDB7DEB7282F44
:1013600030E0F901EC5AFF4F8491F901EC58FF4F3E
:101370001491F901EC56FF4F04910023C9F0882322
:1013800021F069830E945E096981E02FF0E0EE0F91
:10139000FF1FE254FF4FA591B4919FB7F8948C9131
:1013A000611103C01095812301C0812B8C939FBFD5
:1013B0000F90DF91CF911F910F910895CF93DF93FD
:1013C000282F30E0F901EC5AFF4F8491F901EC58D5
:1013D000FF4FD491F901EC56FF4FC491CC2391F00B
:1013E00081110E945E09EC2FF0E0EE0FFF1FEC541C
:1013F000FF4FA591B4912C912D2381E090E021F431
:1014000080E002C080E090E0DF91CF910895CF921C
:10141000DF92EF92FF920F931F93CF93DF937C01A4
:101420006A01EB0100E010E00C151D0571F06991F7
:10143000D701ED91FC910190F081E02DC701099554
:10144000892B19F00F5F1F4FEFCFC801DF91CF91AC
:101450001F910F91FF90EF90DF90CF90089561154D
:10146000710581F0DB010D900020E9F7AD014150DD
:101470005109461B570BDC01ED91FC910280F38171
:10148000E02D099480E090E008950C942F0A0E94CA
:10149000820B08950E943E090E94490A0E940F0291
:1014A000C0E0D0E00E9432012097E1F30E940000EA
:1014B000F9CF08950CD0E6C0DED040F0D5D030F0A2
:1014C00021F45F3F19F0C7C0511110C1CAC0EBD061
:1014D00098F39923C9F35523B1F3951B550BBB27FB
:1014E000AA2762177307840738F09F5F5F4F220FA8
:1014F000331F441FAA1FA9F333D00E2E3AF0E0E8A1
:1015000030D091505040E695001CCAF729D0FE2FEC
:1015100027D0660F771F881FBB1F2617370748077E
:10152000AB07B0E809F0BB0B802DBF01FF27935834
:101530005F4F2AF09E3F510568F08DC0D7C05F3FD6
:10154000ECF3983EDCF3869577956795B795F7951C
:101550009F5FC9F7880F911D9695879597F9089514
:10156000E1E0660F771F881FBB1F621773078407B0
:10157000BA0720F0621B730B840BBA0BEE1F88F7BF
:10158000E095089598D088F09F5790F0B92F99274B
:10159000B751A0F0D1F0660F771F881F991F1AF07E
:1015A000BA95C9F712C0B13081F09FD0B1E008956B
:1015B0009CC0672F782F8827B85F39F0B93FCCF3EC
:1015C000869577956795B395D9F73EF49095809574
:1015D000709561957F4F8F4F9F4F0895E89409C094
:1015E00097FB3EF490958095709561957F4F8F4F56
:1015F0009F4F9923A9F0F92F96E9BB279395F6956C
:10160000879577956795B795F111F8CFFAF4BB0FE9
:1016100011F460FF1BC06F5F7F4F8F4F9F4F16C04D
:10162000882311F096E911C0772321F09EE8872FD7
:10163000762F05C0662371F096E8862F70E060E093
:101640002AF09A95660F771F881FDAF7880F96950C
:10165000879597F9089597F99F6780E870E060E0B3
:1016600008959FEF80EC089500240A94161617063B
:1016700018060906089500240A9412161306140683
:1016800005060895092E0394000C11F4882352F0E6
:10169000BB0F40F4BF2B11F460FF04C06F5F7F4F9E
:1016A0008F4F9F4F089557FD9058440F551F59F085
:1016B0005F3F71F04795880F97FB991F61F09F3F3F
:1016C00079F087950895121613061406551FF2CF68
:1016D0004695F1DF08C0161617061806991FF1CFB8
:1016E00086957105610508940895E894BB276627DF
:1016F0007727CB0197F90895EE0FFF1F0590F4911E
:10170000E02D099481E090E0F8940C94580EAEE03E
:10171000B0E0EDE8FBE00C942F0E0D891E8986E009
:101720008C831A8309838FEF9FE79E838D83AE019D
:10173000475E5F4F6F89788DCE0101960E94A90B9D
:10174000EF81F885E00FF11F10822E96E4E00C94F3
:101750004B0EACE0B0E0EFEAFBE00C94210E7C0114
:101760006B018A01FC0117821682838181FFBDC152
:10177000CE0101964C01F7019381F60193FD85910D
:1017800093FF81916F01882309F4ABC1853239F44D
:1017900093FD859193FF81916F01853229F4B70103
:1017A00090E00E94910DE7CF512C312C20E02032A7
:1017B000A0F48B3269F030F4803259F0833269F44E
:1017C00020612CC08D3239F0803339F4216026C07D
:1017D0002260246023C0286021C027FD27C030ED8F
:1017E000380F3A3078F426FF06C0FAE05F9E300DDD
:1017F0001124532E13C08AE0389E300D1124332E4D
:1018000020620CC08E3221F426FD6BC1206406C01C
:101810008C3611F4206802C0883641F4F60193FD3D
:10182000859193FF81916F018111C1CF982F9F7D89
:101830009554933028F40C5F1F4FFFE3F9830DC0DC
:10184000833631F0833771F0833509F05BC022C0F5
:10185000F801808189830E5F1F4F44244394512CEB
:10186000540115C03801F2E06F0E711CF801A08020
:10187000B18026FF03C0652D70E002C06FEF7FEFDF
:10188000C5012C870E94860D2C0183012C852F77A2
:10189000222E17C03801F2E06F0E711CF801A080F3
:1018A000B18026FF03C0652D70E002C06FEF7FEFAF
:1018B000C5012C870E947B0D2C012C852068222ECF
:1018C000830123FC1BC0832D90E048165906B0F419
:1018D000B70180E290E00E94910D3A94F4CFF501B7
:1018E00027FC859127FE81915F01B70190E00E945E
:1018F000910D31103A94F1E04F1A510841145104FE
:1019000071F7E5C0843611F0893639F5F80127FF03
:1019100007C060817181828193810C5F1F4F08C075
:1019200060817181882777FD8095982F0E5F1F4F0A
:101930002F76B22E97FF09C090958095709561958E
:101940007F4F8F4F9F4F2068B22E2AE030E0A401D6
:101950000E94C30DA82EA81844C0853729F42F7EF5
:10196000B22E2AE030E025C0F22FF97FBF2E8F364D
:10197000C1F018F4883579F0B4C0803719F0883791
:1019800021F0AFC02F2F2061B22EB4FE0DC08B2DE1
:101990008460B82E09C024FF0AC09F2F9660B92E1C
:1019A00006C028E030E005C020E130E002C020E1C0
:1019B00032E0F801B7FE07C06081718182819381B6
:1019C0000C5F1F4F06C06081718180E090E00E5F68
:1019D0001F4FA4010E94C30DA82EA818FB2DFF774E
:1019E000BF2EB6FE0BC02B2D2E7FA51450F4B4FED7
:1019F0000AC0B2FC08C02B2D2E7E05C07A2C2B2DE0
:101A000003C07A2C01C0752C24FF0DC0FE01EA0D25
:101A1000F11D8081803311F4297E09C022FF06C0A8
:101A20007394739404C0822F867809F0739423FD15
:101A300013C020FF06C05A2C731418F4530C571807
:101A4000732C731468F4B70180E290E02C870E9435
:101A5000910D73942C85F5CF731410F4371801C0D1
:101A6000312C24FF12C0B70180E390E02C870E9444
:101A7000910D2C8522FF17C021FF03C088E590E05F
:101A800002C088E790E0B7010CC0822F867859F039
:101A900021FD02C080E201C08BE227FD8DE2B7018B
:101AA00090E00E94910DA51438F4B70180E390E016
:101AB0000E94910D5A94F7CFAA94F401EA0DF11DFA
:101AC0008081B70190E00E94910DA110F5CF3320E5
:101AD00009F451CEB70180E290E00E94910D3A9452
:101AE000F6CFF7018681978102C08FEF9FEF2C968A
:101AF000E2E10C943D0EFC01059061507040011034
:101B0000D8F7809590958E0F9F1F0895FC01615026
:101B1000704001900110D8F7809590958E0F9F1F0F
:101B200008950F931F93CF93DF93182F092FEB0185
:101B30008B8181FD03C08FEF9FEF20C082FF10C01B
:101B40004E815F812C813D81421753077CF4E881EF
:101B5000F9819F012F5F3F4F39832883108306C08F
:101B6000E885F985812F0995892B29F72E813F81F9
:101B70002F5F3F4F3F832E83812F902FDF91CF9197
:101B80001F910F910895FA01AA27283051F12031B1
:101B900081F1E8946F936E7F6E5F7F4F8F4F9F4F01
:101BA000AF4FB1E03ED0B4E03CD0670F781F891F43
:101BB0009A1FA11D680F791F8A1F911DA11D6A0F11
:101BC000711D811D911DA11D20D009F468943F91C4
:101BD0002AE0269F11243019305D3193DEF6CF01C3
:101BE0000895462F4770405D4193B3E00FD0C9F789
:101BF000F6CF462F4F70405D4A3318F0495D31FDF6
:101C00004052419302D0A9F7EACFB4E0A695979548
:101C1000879577956795BA95C9F70097610571051E
:101C200008959B01AC010A2E069457954795379568
:101C30002795BA95C9F7620F731F841F951FA01DC2
:101C400008952F923F924F925F926F927F928F9260
:101C50009F92AF92BF92CF92DF92EF92FF920F933B
:101C60001F93CF93DF93CDB7DEB7CA1BDB0B0FB645
:101C7000F894DEBF0FBECDBF09942A883988488802
:101C80005F846E847D848C849B84AA84B984C88498
:101C9000DF80EE80FD800C811B81AA81B981CE0F8F
:101CA000D11D0FB6F894DEBF0FBECDBFED01089574
:041CB000F894FFCFD6
:101CB400504952202530316420435A4C202530317C
:101CC4006420435A50202530316420202000535A88
:101CD4002025303164205347202530316420503191
:101CE40020253031642050322025303164200050CA
:101CF4003320253031642050342025303164205085
:101D040035202530316420503620253031642000C0
:101D14004C5558202530356420200050726F67726E
:101D2400616D3A204F73776965746C656E696500FF
:101D3400737A61667920322E30002A000000000098
:101D44003F031203E702EF02020311030000000045
:101D54006C06070AD5066A066B06470A00000000EF
:0C1D64006C06070A720856076A0754084C
:00000001FF
